{
  "contractName": "SimpleStorage",
  "abi": [
    {
      "constant": true,
      "inputs": [
        {
          "name": "",
          "type": "uint256"
        }
      ],
      "name": "ipfsHashes",
      "outputs": [
        {
          "name": "",
          "type": "string"
        }
      ],
      "payable": false,
      "stateMutability": "view",
      "type": "function",
      "signature": "0xa4de2f5c"
    },
    {
      "constant": false,
      "inputs": [
        {
          "name": "value1",
          "type": "string"
        },
        {
          "name": "id1",
          "type": "uint256"
        }
      ],
      "name": "set",
      "outputs": [],
      "payable": false,
      "stateMutability": "nonpayable",
      "type": "function",
      "signature": "0x8a42ebe9"
    },
    {
      "constant": true,
      "inputs": [
        {
          "name": "id1",
          "type": "uint256"
        }
      ],
      "name": "get",
      "outputs": [
        {
          "name": "",
          "type": "string"
        }
      ],
      "payable": false,
      "stateMutability": "view",
      "type": "function",
      "signature": "0x9507d39a"
    }
  ],
  "bytecode": "0x608060405234801561001057600080fd5b506104f6806100206000396000f3fe608060405260043610610057576000357c0100000000000000000000000000000000000000000000000000000000900463ffffffff1680638a42ebe91461005c5780639507d39a1461012e578063a4de2f5c146101e2575b600080fd5b34801561006857600080fd5b5061012c6004803603604081101561007f57600080fd5b810190808035906020019064010000000081111561009c57600080fd5b8201836020820111156100ae57600080fd5b803590602001918460018302840111640100000000831117156100d057600080fd5b91908080601f016020809104026020016040519081016040528093929190818152602001838380828437600081840152601f19601f82011690508083019250505050505050919291929080359060200190929190505050610296565b005b34801561013a57600080fd5b506101676004803603602081101561015157600080fd5b81019080803590602001909291905050506102c1565b6040518080602001828103825283818151815260200191508051906020019080838360005b838110156101a757808201518184015260208101905061018c565b50505050905090810190601f1680156101d45780820380516001836020036101000a031916815260200191505b509250505060405180910390f35b3480156101ee57600080fd5b5061021b6004803603602081101561020557600080fd5b8101908080359060200190929190505050610375565b6040518080602001828103825283818151815260200191508051906020019080838360005b8381101561025b578082015181840152602081019050610240565b50505050905090810190601f1680156102885780820380516001836020036101000a031916815260200191505b509250505060405180910390f35b8160008083815260200190815260200160002090805190602001906102bc929190610425565b505050565b60606000808381526020019081526020016000208054600181600116156101000203166002900480601f0160208091040260200160405190810160405280929190818152602001828054600181600116156101000203166002900480156103695780601f1061033e57610100808354040283529160200191610369565b820191906000526020600020905b81548152906001019060200180831161034c57829003601f168201915b50505050509050919050565b60006020528060005260406000206000915090508054600181600116156101000203166002900480601f01602080910402602001604051908101604052809291908181526020018280546001816001161561010002031660029004801561041d5780601f106103f25761010080835404028352916020019161041d565b820191906000526020600020905b81548152906001019060200180831161040057829003601f168201915b505050505081565b828054600181600116156101000203166002900490600052602060002090601f016020900481019282601f1061046657805160ff1916838001178555610494565b82800160010185558215610494579182015b82811115610493578251825591602001919060010190610478565b5b5090506104a191906104a5565b5090565b6104c791905b808211156104c35760008160009055506001016104ab565b5090565b9056fea165627a7a72305820c0d3fe331f56377fb6a6589747c65dc6e639b6fe1fd373a252ff937b1d08f80d0029",
  "source": "pragma solidity ^0.5.0;\n\ncontract SimpleStorage {\n  mapping ( uint => string ) public ipfsHashes;\n\n  function set(string memory value1, uint id1) public {\n    ipfsHashes[id1]=value1;\n  }\n\n  function get( uint id1) public view returns (string memory) {\n    return ipfsHashes[id1];\n  }\n}\n\n",
  "sourcePath": "/Users/sergiodavid/Documents/BlockChainIpfsClient/blockIpfs/contracts/SimpleStorage.sol",
  "compiler": {
    "name": "solc",
    "version": "0.5.0+commit.1d4f565a.Emscripten.clang"
  },
  "schemaVersion": "3.0.2",
  "updatedAt": "2019-04-17T04:06:19.327Z",
  "devdoc": {
    "methods": {}
  },
  "userdoc": {
    "methods": {}
  }
}