{
  "contractName": "SimpleStorage",
  "abi": [
    {
      "constant": true,
      "inputs": [],
      "name": "soyPdf2",
      "outputs": [
        {
          "name": "idDoc",
          "type": "uint256"
        },
        {
          "name": "name",
          "type": "bytes32"
        },
        {
          "name": "hash",
          "type": "bytes32"
        }
      ],
      "payable": false,
      "stateMutability": "view",
      "type": "function",
      "signature": "0x227a733c"
    },
    {
      "constant": true,
      "inputs": [],
      "name": "soyPdf1",
      "outputs": [
        {
          "name": "idDoc",
          "type": "uint256"
        },
        {
          "name": "name",
          "type": "bytes32"
        },
        {
          "name": "hash",
          "type": "bytes32"
        }
      ],
      "payable": false,
      "stateMutability": "view",
      "type": "function",
      "signature": "0x79c5cc0f"
    },
    {
      "constant": true,
      "inputs": [
        {
          "name": "",
          "type": "uint256"
        }
      ],
      "name": "allUsers",
      "outputs": [
        {
          "name": "id",
          "type": "uint256"
        },
        {
          "name": "name",
          "type": "bytes32"
        }
      ],
      "payable": false,
      "stateMutability": "view",
      "type": "function",
      "signature": "0xa2bdedf4"
    },
    {
      "constant": true,
      "inputs": [
        {
          "name": "",
          "type": "uint256"
        }
      ],
      "name": "allDocuments",
      "outputs": [
        {
          "name": "idDoc",
          "type": "uint256"
        },
        {
          "name": "name",
          "type": "bytes32"
        },
        {
          "name": "hash",
          "type": "bytes32"
        }
      ],
      "payable": false,
      "stateMutability": "view",
      "type": "function",
      "signature": "0xcdee934e"
    },
    {
      "constant": false,
      "inputs": [],
      "name": "addDocuments",
      "outputs": [
        {
          "name": "",
          "type": "uint256"
        },
        {
          "name": "",
          "type": "bytes32"
        },
        {
          "name": "",
          "type": "bytes32"
        }
      ],
      "payable": false,
      "stateMutability": "nonpayable",
      "type": "function",
      "signature": "0x03a50258"
    },
    {
      "constant": false,
      "inputs": [],
      "name": "buildUser",
      "outputs": [
        {
          "name": "",
          "type": "uint256"
        },
        {
          "name": "",
          "type": "bytes32"
        },
        {
          "name": "",
          "type": "uint256[]"
        },
        {
          "name": "",
          "type": "bytes32[]"
        },
        {
          "name": "",
          "type": "bytes32[]"
        }
      ],
      "payable": false,
      "stateMutability": "nonpayable",
      "type": "function",
      "signature": "0x2f6068a3"
    },
    {
      "constant": false,
      "inputs": [
        {
          "name": "_personId",
          "type": "uint256"
        }
      ],
      "name": "login",
      "outputs": [
        {
          "name": "",
          "type": "uint256"
        },
        {
          "name": "",
          "type": "bytes32"
        },
        {
          "name": "",
          "type": "uint256[]"
        },
        {
          "name": "",
          "type": "bytes32[]"
        },
        {
          "name": "",
          "type": "bytes32[]"
        }
      ],
      "payable": false,
      "stateMutability": "nonpayable",
      "type": "function",
      "signature": "0x3dbfd97c"
    },
    {
      "constant": false,
      "inputs": [
        {
          "name": "x",
          "type": "string"
        }
      ],
      "name": "set",
      "outputs": [],
      "payable": false,
      "stateMutability": "nonpayable",
      "type": "function",
      "signature": "0x4ed3885e"
    },
    {
      "constant": true,
      "inputs": [],
      "name": "get",
      "outputs": [
        {
          "name": "",
          "type": "string"
        }
      ],
      "payable": false,
      "stateMutability": "view",
      "type": "function",
      "signature": "0x6d4ce63c"
    }
  ],
  "bytecode": "0x6080604052606060405190810160405280613c5761ffff168152602001613c5861ffff168152602001613c5961ffff16815250600290600362000044929190620001a5565b50606060405190810160405280606f81526020017f736f79506466310000000000000000000000000000000000000000000000000081526020017f41313131310000000000000000000000000000000000000000000000000000008152506003600082015181600001556020820151816001015560408201518160020155505060606040519081016040528060de81526020017f736f79506466320000000000000000000000000000000000000000000000000081526020017f4132323232000000000000000000000000000000000000000000000000000000815250600660008201518160000155602082015181600101556040820151816002015550506040805190810160405280600681526020017f70727565626100000000000000000000000000000000000000000000000000008152506009908051906020019062000190929190620001fd565b503480156200019e57600080fd5b50620002ac565b828054828255906000526020600020908101928215620001ea579160200282015b82811115620001e9578251829061ffff16905591602001919060010190620001c6565b5b509050620001f9919062000284565b5090565b828054600181600116156101000203166002900490600052602060002090601f016020900481019282601f106200024057805160ff191683800117855562000271565b8280016001018555821562000271579182015b828111156200027057825182559160200191906001019062000253565b5b50905062000280919062000284565b5090565b620002a991905b80821115620002a55760008160009055506001016200028b565b5090565b90565b610df980620002bc6000396000f3fe608060405260043610610099576000357c0100000000000000000000000000000000000000000000000000000000900463ffffffff16806303a502581461009e578063227a733c146100d75780632f6068a3146101105780633dbfd97c1461021a5780634ed3885e146103485780636d4ce63c1461041057806379c5cc0f146104a0578063a2bdedf4146104d9578063cdee934e1461052f575b600080fd5b3480156100aa57600080fd5b506100b361058c565b60405180848152602001838152602001828152602001935050505060405180910390f35b3480156100e357600080fd5b506100ec610662565b60405180848152602001838152602001828152602001935050505060405180910390f35b34801561011c57600080fd5b5061012561067a565b60405180868152602001858152602001806020018060200180602001848103845287818151815260200191508051906020019060200280838360005b8381101561017c578082015181840152602081019050610161565b50505050905001848103835286818151815260200191508051906020019060200280838360005b838110156101be5780820151818401526020810190506101a3565b50505050905001848103825285818151815260200191508051906020019060200280838360005b838110156102005780820151818401526020810190506101e5565b505050509050019850505050505050505060405180910390f35b34801561022657600080fd5b506102536004803603602081101561023d57600080fd5b81019080803590602001909291905050506108c6565b60405180868152602001858152602001806020018060200180602001848103845287818151815260200191508051906020019060200280838360005b838110156102aa57808201518184015260208101905061028f565b50505050905001848103835286818151815260200191508051906020019060200280838360005b838110156102ec5780820151818401526020810190506102d1565b50505050905001848103825285818151815260200191508051906020019060200280838360005b8381101561032e578082015181840152602081019050610313565b505050509050019850505050505050505060405180910390f35b34801561035457600080fd5b5061040e6004803603602081101561036b57600080fd5b810190808035906020019064010000000081111561038857600080fd5b82018360208201111561039a57600080fd5b803590602001918460018302840111640100000000831117156103bc57600080fd5b91908080601f016020809104026020016040519081016040528093929190818152602001838380828437600081840152601f19601f820116905080830192505050505050509192919290505050610b9b565b005b34801561041c57600080fd5b50610425610bb5565b6040518080602001828103825283818151815260200191508051906020019080838360005b8381101561046557808201518184015260208101905061044a565b50505050905090810190601f1680156104925780820380516001836020036101000a031916815260200191505b509250505060405180910390f35b3480156104ac57600080fd5b506104b5610c57565b60405180848152602001838152602001828152602001935050505060405180910390f35b3480156104e557600080fd5b50610512600480360360208110156104fc57600080fd5b8101908080359060200190929190505050610c6f565b604051808381526020018281526020019250505060405180910390f35b34801561053b57600080fd5b506105686004803603602081101561055257600080fd5b8101908080359060200190929190505050610ca2565b60405180848152602001838152602001828152602001935050505060405180910390f35b6000806000610599610cdb565b606060405190810160405280607b81526020017f516d594a685169704d69697a665243625944736443503400000000000000000081526020017f514d4635766e526a6337796959456a5350696d5a31667900000000000000000081525090506000819080600181540180825580915050906001820390600052602060002090600302016000909192909190915060008201518160000155602082015181600101556040820151816002015550505080600001518160200151826040015193509350935050909192565b60068060000154908060010154908060020154905083565b600080606080606061068a61058c565b50505061069561058c565b5050506106a061058c565b5050506106ab610d03565b6060604051908101604052806102f481526020017f53657267696f000000000000000000000000000000000000000000000000000081526020016000805480602002602001604051908101604052809291908181526020016000905b82821015610758578382906000526020600020906003020160606040519081016040529081600082015481526020016001820154815260200160028201548152505081526020019060010190610707565b5050505081525090506000600390506060816040519080825280602002602001820160405280156107985781602001602082028038833980820191505090505b5090506060826040519080825280602002602001820160405280156107cc5781602001602082028038833980820191505090505b5090506060836040519080825280602002602001820160405280156108005781602001602082028038833980820191505090505b50905060008090505b848110156108a2576000808281548110151561082157fe5b906000526020600020906003020190508060000154858381518110151561084457fe5b90602001906020020181815250508060010154848381518110151561086557fe5b90602001906020020181815250508060020154838381518110151561088657fe5b9060200190602002018181525050508080600101915050610809565b50846000015185602001518484849950995099509950995050505050509091929394565b600080606080606060008090505b600280549050811015610b5257866002828154811015156108f157fe5b90600052602060002001541415610b455761090a61058c565b50505061091561058c565b50505061092061058c565b50505061092b610d03565b6060604051908101604052806102f481526020017f53657267696f000000000000000000000000000000000000000000000000000081526020016000805480602002602001604051908101604052809291908181526020016000905b828210156109d8578382906000526020600020906003020160606040519081016040529081600082015481526020016001820154815260200160028201548152505081526020019060010190610987565b505050508152509050600060039050606081604051908082528060200260200182016040528015610a185781602001602082028038833980820191505090505b509050606082604051908082528060200260200182016040528015610a4c5781602001602082028038833980820191505090505b509050606083604051908082528060200260200182016040528015610a805781602001602082028038833980820191505090505b50905060008090505b84811015610b225760008082815481101515610aa157fe5b9060005260206000209060030201905080600001548583815181101515610ac457fe5b906020019060200201818152505080600101548483815181101515610ae557fe5b906020019060200201818152505080600201548383815181101515610b0657fe5b9060200190602002018181525050508080600101915050610a89565b50846000015185602001518484849a509a509a509a509a50505050505050610b92565b80806001019150506108d4565b50606080606060018383838393507f3078313131000000000000000000000000000000000000000000000000000000929190975097509750975097505050505b91939590929450565b8060099080519060200190610bb1929190610d28565b5050565b606060098054600181600116156101000203166002900480601f016020809104026020016040519081016040528092919081815260200182805460018160011615610100020316600290048015610c4d5780601f10610c2257610100808354040283529160200191610c4d565b820191906000526020600020905b815481529060010190602001808311610c3057829003601f168201915b5050505050905090565b60038060000154908060010154908060020154905083565b600181815481101515610c7e57fe5b90600052602060002090600302016000915090508060000154908060010154905082565b600081815481101515610cb157fe5b90600052602060002090600302016000915090508060000154908060010154908060020154905083565b6060604051908101604052806000815260200160008019168152602001600080191681525090565b6060604051908101604052806000815260200160008019168152602001606081525090565b828054600181600116156101000203166002900490600052602060002090601f016020900481019282601f10610d6957805160ff1916838001178555610d97565b82800160010185558215610d97579182015b82811115610d96578251825591602001919060010190610d7b565b5b509050610da49190610da8565b5090565b610dca91905b80821115610dc6576000816000905550600101610dae565b5090565b9056fea165627a7a7230582037c5f582cc128210f72c0b1f86c634eb5fe9396429681afd1344d12ed7b354640029",
  "source": "pragma solidity ^0.5.0;\n\ncontract SimpleStorage {\n\n    //structure of document\n    struct Document {\n        uint idDoc;\n        bytes32 name;\n        bytes32 hash;\n    }\n\n    struct User {\n        uint id;\n        bytes32 name;\n        Document[] userDocuments;\n    }\n\n    struct NUser{\n        uint id;\n        bytes32 name;\n        bytes32 [] idDoc;\n        bytes32 [] nameDoc;\n        bytes32 [] hashDoc;\n    }\n\n    Document[] public allDocuments;\n    User[] public allUsers;\n\n    //registered users\n    uint[] users = [15447, 15448, 15449];\n\n    Document public soyPdf1 = Document(111, \"soyPdf1\", \"A1111\");\n    Document public soyPdf2 = Document(222, \"soyPdf2\", \"A2222\");\n\n    function addDocuments() public returns (uint, bytes32, bytes32) {\n        Document memory tempDoc = Document({\n            idDoc: 123,\n            name: \"QmYJhQipMiizfRCbYDsdCP4\",\n            hash: \"QMF5vnRjc7yiYEjSPimZ1fy\"\n            });\n        allDocuments.push(tempDoc);\n        return (tempDoc.idDoc, tempDoc.name, tempDoc.hash);\n    }\n\n    function buildUser() public returns (uint, bytes32, uint[] memory, bytes32[] memory, bytes32[] memory){\n        addDocuments();\n        addDocuments();\n        addDocuments();\n        User memory tempUser  = User({\n            id: 756,\n            name: \"Sergio\",\n            userDocuments: allDocuments\n            });\n\n        uint indexLength = 3;\n\n        uint[]    memory iddocs = new uint[](indexLength);\n        bytes32[] memory names = new bytes32[](indexLength);\n        bytes32[] memory hashes = new bytes32[](indexLength);\n\n        for (uint i = 0; i < indexLength; i++) {\n            Document storage document = allDocuments[i];\n            iddocs[i] = document.idDoc;\n            names[i] = document.name;\n            hashes[i] = document.hash;\n        }\n\n        return (tempUser.id, tempUser.name, iddocs, names, hashes);\n    }\n\n    function login(uint _personId) public returns (uint, bytes32, uint[] memory, bytes32[] memory, bytes32[] memory){\n        for (uint y = 0; y < users.length ; y++){\n            if(users[y] == _personId){\n\n                addDocuments();\n                addDocuments();\n                addDocuments();\n                User memory tempUser  = User({\n                    id: 756,\n                    name: \"Sergio\",\n                    userDocuments: allDocuments\n                    });\n\n                uint indexLength = 3;\n\n                uint[]    memory iddocs = new uint[](indexLength);\n                bytes32[] memory names = new bytes32[](indexLength);\n                bytes32[] memory hashes = new bytes32[](indexLength);\n\n                for (uint i = 0; i < indexLength; i++) {\n                    Document storage document = allDocuments[i];\n                    iddocs[i] = document.idDoc;\n                    names[i] = document.name;\n                    hashes[i] = document.hash;\n                }\n\n                return (tempUser.id, tempUser.name, iddocs, names, hashes);\n\n            }\n        }\n\n        uint[]    memory iddocs;\n        bytes32[] memory names;\n        bytes32[] memory hashes;\n\n        return (1, \"0x111\", iddocs, names, hashes);\n    }\n\n    string ipfsHash = 'prueba';\n\n    function set(string memory x) public {\n        ipfsHash = x;\n    }\n\n    function get() public view returns (string memory) {\n        return ipfsHash;\n    }\n\n\n}\n\n",
  "sourcePath": "/Users/sergiodavid/Documents/BlockChainIpfsClient/blockIpfs/contracts/SimpleStorage.sol",
  "compiler": {
    "name": "solc",
    "version": "0.5.0+commit.1d4f565a.Emscripten.clang"
  },
  "schemaVersion": "3.0.2",
  "updatedAt": "2019-04-25T22:00:00.433Z",
  "devdoc": {
    "methods": {}
  },
  "userdoc": {
    "methods": {}
  }
}