{
  "contractName": "SimpleStorage",
  "abi": [
    {
      "constant": true,
      "inputs": [],
      "name": "soyPdf2",
      "outputs": [
        {
          "name": "idDoc",
          "type": "uint256"
        },
        {
          "name": "name",
          "type": "bytes32"
        },
        {
          "name": "hash1",
          "type": "bytes32"
        },
        {
          "name": "hash2",
          "type": "bytes32"
        }
      ],
      "payable": false,
      "stateMutability": "view",
      "type": "function",
      "signature": "0x227a733c"
    },
    {
      "constant": true,
      "inputs": [],
      "name": "soyPdf1",
      "outputs": [
        {
          "name": "idDoc",
          "type": "uint256"
        },
        {
          "name": "name",
          "type": "bytes32"
        },
        {
          "name": "hash1",
          "type": "bytes32"
        },
        {
          "name": "hash2",
          "type": "bytes32"
        }
      ],
      "payable": false,
      "stateMutability": "view",
      "type": "function",
      "signature": "0x79c5cc0f"
    },
    {
      "constant": true,
      "inputs": [
        {
          "name": "",
          "type": "uint256"
        }
      ],
      "name": "allUsers",
      "outputs": [
        {
          "name": "id",
          "type": "uint256"
        },
        {
          "name": "name",
          "type": "bytes32"
        }
      ],
      "payable": false,
      "stateMutability": "view",
      "type": "function",
      "signature": "0xa2bdedf4"
    },
    {
      "constant": true,
      "inputs": [
        {
          "name": "",
          "type": "uint256"
        }
      ],
      "name": "allDocuments",
      "outputs": [
        {
          "name": "idDoc",
          "type": "uint256"
        },
        {
          "name": "name",
          "type": "bytes32"
        },
        {
          "name": "hash1",
          "type": "bytes32"
        },
        {
          "name": "hash2",
          "type": "bytes32"
        }
      ],
      "payable": false,
      "stateMutability": "view",
      "type": "function",
      "signature": "0xcdee934e"
    },
    {
      "constant": false,
      "inputs": [
        {
          "name": "_idDoc",
          "type": "uint256"
        },
        {
          "name": "_name",
          "type": "bytes32"
        },
        {
          "name": "_hash1",
          "type": "bytes32"
        },
        {
          "name": "_hash2",
          "type": "bytes32"
        }
      ],
      "name": "validateDocuments",
      "outputs": [
        {
          "name": "",
          "type": "uint256"
        },
        {
          "name": "",
          "type": "bytes32"
        },
        {
          "name": "",
          "type": "bytes32"
        },
        {
          "name": "",
          "type": "bytes32"
        }
      ],
      "payable": false,
      "stateMutability": "nonpayable",
      "type": "function",
      "signature": "0xf0797949"
    },
    {
      "constant": false,
      "inputs": [
        {
          "name": "_idDoc",
          "type": "uint256"
        },
        {
          "name": "_name",
          "type": "bytes32"
        },
        {
          "name": "_hash1",
          "type": "bytes32"
        },
        {
          "name": "_hash2",
          "type": "bytes32"
        }
      ],
      "name": "addDocuments",
      "outputs": [
        {
          "name": "",
          "type": "uint256"
        },
        {
          "name": "",
          "type": "bytes32"
        },
        {
          "name": "",
          "type": "bytes32"
        },
        {
          "name": "",
          "type": "bytes32"
        }
      ],
      "payable": false,
      "stateMutability": "nonpayable",
      "type": "function",
      "signature": "0x06c82f40"
    },
    {
      "constant": false,
      "inputs": [
        {
          "name": "_personId",
          "type": "uint256"
        }
      ],
      "name": "login",
      "outputs": [
        {
          "name": "",
          "type": "uint256"
        },
        {
          "name": "",
          "type": "bytes32"
        },
        {
          "name": "",
          "type": "uint256[]"
        },
        {
          "name": "",
          "type": "bytes32[]"
        },
        {
          "name": "",
          "type": "bytes32[]"
        },
        {
          "name": "",
          "type": "bytes32[]"
        }
      ],
      "payable": false,
      "stateMutability": "nonpayable",
      "type": "function",
      "signature": "0x3dbfd97c"
    },
    {
      "constant": false,
      "inputs": [
        {
          "name": "x",
          "type": "string"
        }
      ],
      "name": "set",
      "outputs": [],
      "payable": false,
      "stateMutability": "nonpayable",
      "type": "function",
      "signature": "0x4ed3885e"
    },
    {
      "constant": true,
      "inputs": [],
      "name": "get",
      "outputs": [
        {
          "name": "",
          "type": "string"
        }
      ],
      "payable": false,
      "stateMutability": "view",
      "type": "function",
      "signature": "0x6d4ce63c"
    },
    {
      "constant": false,
      "inputs": [
        {
          "name": "_idDoc",
          "type": "uint256"
        },
        {
          "name": "_name",
          "type": "bytes32"
        },
        {
          "name": "_hash1",
          "type": "bytes32"
        },
        {
          "name": "_hash2",
          "type": "bytes32"
        }
      ],
      "name": "saveInfo",
      "outputs": [
        {
          "name": "",
          "type": "bool"
        }
      ],
      "payable": false,
      "stateMutability": "nonpayable",
      "type": "function",
      "signature": "0x6d8f5906"
    }
  ],
  "bytecode": "0x6080604052606060405190810160405280613c5761ffff168152602001613c5861ffff168152602001613c5961ffff1681525060029060036200004492919062000205565b50608060405190810160405280606f81526020017f736f79506466310000000000000000000000000000000000000000000000000081526020017f413131313100000000000000000000000000000000000000000000000000000081526020017f3130303000000000000000000000000000000000000000000000000000000000815250600360008201518160000155602082015181600101556040820151816002015560608201518160030155505060806040519081016040528060de81526020017f736f79506466320000000000000000000000000000000000000000000000000081526020017f413232323200000000000000000000000000000000000000000000000000000081526020017f323030300000000000000000000000000000000000000000000000000000000081525060076000820151816000015560208201518160010155604082015181600201556060820151816003015550506040805190810160405280600681526020017f7072756562610000000000000000000000000000000000000000000000000000815250600b9080519060200190620001f09291906200025d565b50348015620001fe57600080fd5b506200030c565b8280548282559060005260206000209081019282156200024a579160200282015b8281111562000249578251829061ffff1690559160200191906001019062000226565b5b509050620002599190620002e4565b5090565b828054600181600116156101000203166002900490600052602060002090601f016020900481019282601f10620002a057805160ff1916838001178555620002d1565b82800160010185558215620002d1579182015b82811115620002d0578251825591602001919060010190620002b3565b5b509050620002e09190620002e4565b5090565b6200030991905b8082111562000305576000816000905550600101620002eb565b5090565b90565b611094806200031c6000396000f3fe6080604052600436106100a4576000357c0100000000000000000000000000000000000000000000000000000000900463ffffffff16806306c82f40146100a9578063227a733c1461012b5780633dbfd97c1461016b5780634ed3885e146102e15780636d4ce63c146103a95780636d8f59061461043957806379c5cc0f146104aa578063a2bdedf4146104ea578063cdee934e14610540578063f0797949146105a4575b600080fd5b3480156100b557600080fd5b50610100600480360360808110156100cc57600080fd5b8101908080359060200190929190803590602001909291908035906020019092919080359060200190929190505050610626565b6040518085815260200184815260200183815260200182815260200194505050505060405180910390f35b34801561013757600080fd5b5061014061082c565b6040518085815260200184815260200183815260200182815260200194505050505060405180910390f35b34801561017757600080fd5b506101a46004803603602081101561018e57600080fd5b810190808035906020019092919050505061084a565b6040518087815260200186815260200180602001806020018060200180602001858103855289818151815260200191508051906020019060200280838360005b838110156101ff5780820151818401526020810190506101e4565b50505050905001858103845288818151815260200191508051906020019060200280838360005b83811015610241578082015181840152602081019050610226565b50505050905001858103835287818151815260200191508051906020019060200280838360005b83811015610283578082015181840152602081019050610268565b50505050905001858103825286818151815260200191508051906020019060200280838360005b838110156102c55780820151818401526020810190506102aa565b505050509050019a505050505050505050505060405180910390f35b3480156102ed57600080fd5b506103a76004803603602081101561030457600080fd5b810190808035906020019064010000000081111561032157600080fd5b82018360208201111561033357600080fd5b8035906020019184600183028401116401000000008311171561035557600080fd5b91908080601f016020809104026020016040519081016040528093929190818152602001838380828437600081840152601f19601f820116905080830192505050505050509192919290505050610c4e565b005b3480156103b557600080fd5b506103be610c68565b6040518080602001828103825283818151815260200191508051906020019080838360005b838110156103fe5780820151818401526020810190506103e3565b50505050905090810190601f16801561042b5780820380516001836020036101000a031916815260200191505b509250505060405180910390f35b34801561044557600080fd5b506104906004803603608081101561045c57600080fd5b8101908080359060200190929190803590602001909291908035906020019092919080359060200190929190505050610d0a565b604051808215151515815260200191505060405180910390f35b3480156104b657600080fd5b506104bf610d28565b6040518085815260200184815260200183815260200182815260200194505050505060405180910390f35b3480156104f657600080fd5b506105236004803603602081101561050d57600080fd5b8101908080359060200190929190505050610d46565b604051808381526020018281526020019250505060405180910390f35b34801561054c57600080fd5b506105796004803603602081101561056357600080fd5b8101908080359060200190929190505050610d79565b6040518085815260200184815260200183815260200182815260200194505050505060405180910390f35b3480156105b057600080fd5b506105fb600480360360808110156105c757600080fd5b8101908080359060200190929190803590602001909291908035906020019092919080359060200190929190505050610db8565b6040518085815260200184815260200183815260200182815260200194505050505060405180910390f35b60008060008060008090505b60008054905081101561077d57610647610f6c565b60008281548110151561065657fe5b906000526020600020906004020160806040519081016040529081600082015481526020016001820154815260200160028201548152602001600382015481525050905080600001518a14156106fd5760028090507f3078323232000000000000000000000000000000000000000000000000000000807f307832323200000000000000000000000000000000000000000000000000000095509550955095505050610821565b8060400151881480156107135750806060015187145b1561076f5760038090507f3078333333000000000000000000000000000000000000000000000000000000807f307833333300000000000000000000000000000000000000000000000000000095509550955095505050610821565b508080600101915050610632565b50610786610f6c565b6080604051908101604052808a8152602001898152602001888152602001878152509050600081908060018154018082558091505090600182039060005260206000209060040201600090919290919091506000820151816000015560208201518160010155604082015181600201556060820151816003015550505080600001518160200151826040015183606001519450945094509450505b945094509450949050565b60078060000154908060010154908060020154908060030154905084565b60008060608060608060008090505b600280549050811015610bff578760028281548110151561087657fe5b90600052602060002001541415610bf2576108f4607b7f736f7920506466340000000000000000000000000000000000000000000000007f516d594a685169704d69697a66524362594473644350340000000000000000007f514d4635766e526a6337796959456a5350696d5a316679000000000000000000610626565b505050506109666101c87f736f7920506466310000000000000000000000000000000000000000000000007f516d59664d7a64326f484872426a7132764651615473440000000000000000007f4d5452535368654a796b3934546d35466f6b3851455673000000000000000000610626565b50505050610972610f9e565b6060604051908101604052806102f481526020017f53657267696f000000000000000000000000000000000000000000000000000081526020016000805480602002602001604051908101604052809291908181526020016000905b82821015610a29578382906000526020600020906004020160806040519081016040529081600082015481526020016001820154815260200160028201548152602001600382015481525050815260200190600101906109ce565b505050508152509050600080805490509050606081604051908082528060200260200182016040528015610a6c5781602001602082028038833980820191505090505b509050606082604051908082528060200260200182016040528015610aa05781602001602082028038833980820191505090505b509050606083604051908082528060200260200182016040528015610ad45781602001602082028038833980820191505090505b509050606084604051908082528060200260200182016040528015610b085781602001602082028038833980820191505090505b50905060008090505b85811015610bcb5760008082815481101515610b2957fe5b9060005260206000209060040201905080600001548683815181101515610b4c57fe5b906020019060200201818152505080600101548583815181101515610b6d57fe5b906020019060200201818152505080600201548483815181101515610b8e57fe5b906020019060200201818152505080600301548383815181101515610baf57fe5b9060200190602002018181525050508080600101915050610b11565b5085600001518660200151858585859c509c509c509c509c509c5050505050505050610c45565b8080600101915050610859565b506060806060806001848484848494507f307831313100000000000000000000000000000000000000000000000000000093929190995099509950995099509950505050505b91939550919395565b80600b9080519060200190610c64929190610fc3565b5050565b6060600b8054600181600116156101000203166002900480601f016020809104026020016040519081016040528092919081815260200182805460018160011615610100020316600290048015610d005780601f10610cd557610100808354040283529160200191610d00565b820191906000526020600020905b815481529060010190602001808311610ce357829003601f168201915b5050505050905090565b6000610d1885858585610626565b5050505060019050949350505050565b60038060000154908060010154908060020154908060030154905084565b600181815481101515610d5557fe5b90600052602060002090600302016000915090508060000154908060010154905082565b600081815481101515610d8857fe5b90600052602060002090600402016000915090508060000154908060010154908060020154908060030154905084565b60008060008060008090505b600080549050811015610f0f57610dd9610f6c565b600082815481101515610de857fe5b906000526020600020906004020160806040519081016040529081600082015481526020016001820154815260200160028201548152602001600382015481525050905080600001518a1415610f0157806040015188148015610e4e5750806060015187145b15610eaa5760058090507f3078353535000000000000000000000000000000000000000000000000000000807f307835353500000000000000000000000000000000000000000000000000000095509550955095505050610f61565b60048090507f3078343434000000000000000000000000000000000000000000000000000000807f307834343400000000000000000000000000000000000000000000000000000095509550955095505050610f61565b508080600101915050610dc4565b5060068090507f3078363636000000000000000000000000000000000000000000000000000000807f307836363600000000000000000000000000000000000000000000000000000093509350935093505b945094509450949050565b608060405190810160405280600081526020016000801916815260200160008019168152602001600080191681525090565b6060604051908101604052806000815260200160008019168152602001606081525090565b828054600181600116156101000203166002900490600052602060002090601f016020900481019282601f1061100457805160ff1916838001178555611032565b82800160010185558215611032579182015b82811115611031578251825591602001919060010190611016565b5b50905061103f9190611043565b5090565b61106591905b80821115611061576000816000905550600101611049565b5090565b9056fea165627a7a72305820b848380ab7964f778d06247ca521f9c7b95e272820334fc6ae54a34789c154720029",
  "source": "pragma solidity ^0.5.0;\n\ncontract SimpleStorage {\n\n    //structure of document\n    struct Document {\n        uint idDoc;\n        bytes32 name;\n        bytes32 hash1;\n        bytes32 hash2;\n    }\n\n    struct User {\n        uint id;\n        bytes32 name;\n        Document[] userDocuments;\n    }\n\n    struct NUser{\n        uint id;\n        bytes32 name;\n        bytes32 [] idDoc;\n        bytes32 [] nameDoc;\n        bytes32 [] hashDoc;\n    }\n\n    Document[] public allDocuments;\n    User[] public allUsers;\n\n    //registered users\n    uint[] users = [15447, 15448, 15449];\n\n    Document public soyPdf1 = Document(111, \"soyPdf1\", \"A1111\", \"1000\");\n    Document public soyPdf2 = Document(222, \"soyPdf2\", \"A2222\", \"2000\");\n\n    function validateDocuments(uint _idDoc, bytes32 _name, bytes32 _hash1, bytes32 _hash2) public returns (uint, bytes32, bytes32, bytes32) {\n\n        for (uint i = 0; i < allDocuments.length; i++) {\n            Document memory docToCompare  = allDocuments[i];\n            if(_idDoc == docToCompare.idDoc){\n                if( _hash1 == docToCompare.hash1 && _hash2 == docToCompare.hash2){\n                    //Documento Sin alterar\n                    return (5, \"0x555\",\"0x555\", \"0x555\");\n                }else{\n                    //Documento fue alterado\n                    return (4, \"0x444\",\"0x444\", \"0x444\");\n                }\n            }\n        }\n        //El Documento no ha sido registrado\n        return (6, \"0x666\",\"0x666\", \"0x666\");\n    }\n\n    function addDocuments(uint _idDoc, bytes32 _name, bytes32 _hash1, bytes32 _hash2) public returns (uint, bytes32, bytes32, bytes32) {\n\n        for (uint i = 0; i < allDocuments.length; i++) {\n            Document memory docToCompare  = allDocuments[i];\n            if(_idDoc == docToCompare.idDoc){\n                //Documento ya se encuentra inscrito\n                return (2, \"0x222\",\"0x222\", \"0x222\");\n            }\n            if(_hash1 == docToCompare.hash1 && _hash2 == docToCompare.hash2){\n                //El hash ya se encuentra registrado\n                return (3, \"0x333\",\"0x333\", \"0x333\");\n            }\n        }\n\n        Document memory tempDoc = Document({\n            idDoc: _idDoc,\n            name: _name,\n            hash1: _hash1,\n            hash2: _hash2\n            });\n        allDocuments.push(tempDoc);\n        return (tempDoc.idDoc, tempDoc.name, tempDoc.hash1, tempDoc.hash2);\n    }\n\n    function login(uint _personId) public returns (uint, bytes32, uint[] memory, bytes32[] memory, bytes32[] memory, bytes32[] memory){\n        for (uint y = 0; y < users.length ; y++){\n            if(users[y] == _personId){\n\n                addDocuments(123, \"soy Pdf4\", \"QmYJhQipMiizfRCbYDsdCP4\", \"QMF5vnRjc7yiYEjSPimZ1fy\" );\n                addDocuments(456, \"soy Pdf1\", \"QmYfMzd2oHHrBjq2vFQaTsD\", \"MTRSSheJyk94Tm5Fok8QEVs\" );\n                User memory tempUser  = User({\n                    id: 756,\n                    name: \"Sergio\",\n                    userDocuments: allDocuments\n                    });\n\n                uint indexLength = allDocuments.length;\n\n                uint[]    memory iddocs = new uint[](indexLength);\n                bytes32[] memory names = new bytes32[](indexLength);\n                bytes32[] memory hashes1 = new bytes32[](indexLength);\n                bytes32[] memory hashes2 = new bytes32[](indexLength);\n\n                for (uint i = 0; i < indexLength; i++) {\n                    Document storage document = allDocuments[i];\n                    iddocs[i] = document.idDoc;\n                    names[i] = document.name;\n                    hashes1[i] = document.hash1;\n                    hashes2[i] = document.hash2;\n                }\n\n                return (tempUser.id, tempUser.name, iddocs, names, hashes1, hashes2);\n\n            }\n        }\n\n        uint[]    memory iddocs;\n        bytes32[] memory names;\n        bytes32[] memory hashes1;\n        bytes32[] memory hashes2;\n\n\n        return (1, \"0x111\", iddocs, names, hashes1, hashes2);\n    }\n\n    string ipfsHash = 'prueba';\n\n    function set(string memory x) public {\n        ipfsHash = x;\n    }\n\n    function get() public view returns (string memory) {\n        return ipfsHash;\n    }\n\n    function saveInfo(uint _idDoc, bytes32 _name, bytes32 _hash1, bytes32 _hash2) public returns (bool){\n        addDocuments(_idDoc, _name, _hash1, _hash2 );\n        return (true);\n    }\n\n\n}\n\n",
  "sourcePath": "/Users/sergiodavid/Documents/BlockChainIpfsClient/blockIpfs/contracts/SimpleStorage.sol",
  "compiler": {
    "name": "solc",
    "version": "0.5.0+commit.1d4f565a.Emscripten.clang"
  },
  "schemaVersion": "3.0.2",
  "updatedAt": "2019-04-30T15:21:41.011Z",
  "devdoc": {
    "methods": {}
  },
  "userdoc": {
    "methods": {}
  }
}